:060000000A128A110C280F
:10000800FE00030EF1000A08F2000A128A111528F0
:100018000A128A110F28F601F70183010A128A11C0
:100028007F28831203138C1D1A281B287828141282
:10003800141B1F2820282428941F232824282B2811
:100048001308F0007008F60014139413141683169E
:100058000313941A302831285528141934283528C0
:100068005528362837283828000083120313130828
:10007800F0007008F6004028831203138C11141640
:1000880083160313141C49284A284428831203138F
:100098001308F0007008F7005330F000F00B5228F6
:1000A8007528941A582859287528141D5C285D2825
:1000B8007528831203131308F0007008F6008316DE
:1000C8000313141076088312031393001416533085
:1000D800F000F00B6D288316031314187428752884
:1000E8006F28831203138C1172088A00710E830023
:1000F800FE0E7E0E09000A128A11E5200A128A11E4
:100108000A128A11D5200A128A110A128A11EC20C1
:100118000A128A1176300A128A11BD200A128A112F
:10012800A72883120313861586128613A72883121D
:100138000313861186168613A728831203138611C4
:1001480086128617A7287708F400F5017508003A83
:100158000319AF28A7287408013A03199528033A08
:1001680003199B28013A0319A128A7280A128A1102
:100178000C28F30083120313941314139416141603
:100188001408F03906389400730883160313930093
:1001980011149417871507168C15831203138C11E5
:1001A8000800831603178801890183160313860143
:1001B8008801890183120313860187018901F701E8
:1001C8000800831603130F178F160F120F14080059
:0601D8008B170B17080055
:04400E00DC20FF3F74
:00000001FF
