:060000000A128A110C280F
:10000800FE00030EF1000A08F2000A128A11482CB9
:100018000A128A110F2883134C30FD000330FE00AA
:100028009F30FF00203084000A128A1139240A12F6
:100038008A11E801E901EA01EB01EC01FA01830107
:100048000A128A1127280A128A11E7240A128A1129
:100058000A128A115A240A128A110A128A1169226A
:100068000A128A110A128A11FB220A128A110A122A
:100078008A116B240A128A110A128A11DF240A12C1
:100088008A110A128A11B7240A128A110A128A11CD
:10009800EE240A128A110A128A1121240A128A11DC
:1000A800033083120313E3006308ED000A128A1178
:1000B800D6240A128A119130F3000030F4000A1293
:1000C8008A11C3240A128A110A128A11EA230A120F
:1000D8008A1183120313E3006308E8000A128A11E5
:1000E800CD240A128A11033083120313E5008A30E3
:1000F800E4005530E300E30B7F28E40B7F28E50B91
:100108007F280A128A11D6240A128A117630F3003F
:100118000030F4000A128A11C3240A128A118312C9
:1001280003136D08E300E4016308F3006408F400B6
:100138000A128A11C3240A128A110A128A11CD24BA
:100148000A128A11033083120313E5008A30E4008F
:100158005530E300E30BAE28E40BAE28E50BAE28E0
:10016800831203136808E300E4016308D0006408FD
:10017800D1006A30E5006508D2006B30E6006608F9
:10018800D3006C30E7006708D4000A128A11B22144
:100198000A128A11F50101300A128A11CB230A12B8
:1001A8008A11831203136A08303E0A128A119324B3
:1001B8000A128A11831203136B08303E0A128A113D
:1001C80093240A128A11831203136C08303E0A1210
:1001D8008A1193240A128A11831203136808213E94
:1001E800E3006308E90069080A128A1179240A12EF
:1001F8008A1131290830E3006308F50001300A123A
:100208008A11CB230A128A1143300A128A117223E7
:100218000A128A1154280830E3006308F5000130F7
:100228000A128A11CB230A128A113A300A128A1149
:1002380072230A128A1154280830E3006308F50073
:1002480001300A128A11CB230A128A1131300A129C
:100258008A1172230A128A115428831203136D0813
:10026800E300E4016408003A03193B2954286308B1
:10027800013A0319FE28033A03190F29013A031911
:10028800202954280A128A110C2883120313CD013D
:10029800F41F4F2950295729F309F409F30A0319C0
:1002A800F40ACD01CD0AF61F5A295B296429F509FC
:1002B800F609F50A0319F60A0130F7007708CD06A2
:1002C800CE01CF017308740403196B296C29A32983
:1002D800CC01CC0A7A2901300310F30DF40DFF3E4E
:1002E800031D70290130F7007708CC07F41F7D291A
:1002F8007E296F2901300310CE0DCF0DFF3E031D5F
:100308007F2974087602031D8B2973087502031C64
:100318008E298F2996297308F5027408031CF603A1
:10032800F6024E1401300310F40CF30CFF3E031DCB
:1003380097290130CC02031DA229A3297E294D0843
:100348000319A729A829AD29CE09CF09CE0A03196F
:10035800CF0A4F08F4004E08F30008006430F30099
:100368000030F400831203135108F6005008F5001A
:100378000A128A11B5220A128A117308831203130A
:10038800D500520884005508831380006430F300B8
:100398000030F4005108F6005008F5000A128A11DE
:1003A80038230A128A11730883120313D5005508DB
:1003B800D8000A30F3000030F4005808D500D60100
:1003C8005508F5005608F6000A128A1149210A1242
:1003D8008A11730883120313D7005308840057083F
:1003E800831380000A30F3000030F4005808D50069
:1003F800D6015508F5005608F6000A128A1110228F
:100408000A128A11730883120313D7005408840050
:100418005708831380000800F901F61F142A152ACB
:100428001C2AF509F609F50A0319F60AF901F90A69
:10043800F41F1F2A202A252AF309F409F30A0319AD
:10044800F40A7308740403192A2A2B2A5A2AF80171
:10045800F80A392A01300310F30DF40DFF3E031D8D
:100468002F2A0130F7007708F807F41F3C2A3D2AA5
:100478002E2A74087602031D432A73087502031C8A
:10048800462A472A4D2A7308F5027408031CF60306
:10049800F60201300310F40CF30CFF3E031D4E2A44
:1004A8000130F802031D592A5A2A3D2A79080319EE
:1004B8005E2A5F2A642AF509F609F50A0319F60A7D
:1004C8007608F4007508F300080083120313071078
:1004D800871085011530F600C630F500F50B722A35
:1004E800F60B722A000030300A128A119F240A1271
:1004F8008A110730F6007D30F500F50B812AF60BDE
:10050800812A30300A128A119F240A128A11423035
:10051800F500F50B8D2A000030300A128A119F244D
:100528000A128A110630F6003030F500F50B9A2AC7
:10053800F60B9A2A000038300A128A119F240A12F0
:100548008A110630F6003030F500F50BA92AF60BB3
:10055800A92A00000C300A128A119F240A128A1153
:10056800080083120313CD01CE0173087404031924
:10057800BE2ABF2AF62ACC01CC0ACD2A01300310A4
:10058800F30DF40DFF3E031DC32A0130F700770871
:10059800CC07F41FD02AD12AC22A01300310CD0D6E
:1005A800CE0DFF3E031DD22A74087602031DDE2AF3
:1005B80073087502031CE12AE22AE92A7308F50286
:1005C8007408031CF603F6024D1401300310F40CF2
:1005D800F30CFF3E031DEA2A0130CC02031DF52A65
:1005E800F62AD12A4E08F4004D08F30008005230CC
:1005F8008400203083120313CE000408CF0011308A
:10060800D0004E08840083130008D100CE0A4F089A
:10061800840051088000CF0AD00B052BF50100306B
:100628000A128A11CB230A128A1152300A128A112D
:1006380072230A128A11033083120313CE004E0864
:10064800F50001300A128A11CB230A128A112730C9
:100658000A128A1193240A128A1143300A128A1143
:1006680093240A128A1108007308740403193D2B95
:100678003E2B6D2BF801F80A4C2B01300310F30DBB
:10068800F40DFF3E031D422B0130F7007708F807F1
:10069800F41F4F2B502B412B74087602031D562B49
:1006A80073087502031C592B5A2B602B7308F5022B
:1006B8007408031CF603F60201300310F40CF30C63
:1006C800FF3E031D612B0130F802031D6C2B6D2BBF
:1006D800502B7608F4007508F30008008312031302
:1006E800CD00CC01892B4C084D07F8007808840010
:1006F800831300080A128A1193240A128A110130FE
:10070800F800780883120313CC074D080A128A11DF
:1007180008240A128A11831203134C08F800F901FD
:1007280074087902031D9A2B73087802031C9D2B09
:100738009E2B772B0800533465346E3473346F3432
:10074800723420342034533465346D346134663463
:100758006F3472346F34003452346F346A346F3407
:100768002034203420342034003441346D34613452
:10077800723469346C346C346F34003456346534F4
:100788007234643465342034203420340034F80062
:100798008030F6007608F9007808F6000530031076
:1007A800F60DFF3E031DD32B0310760DF7007708D7
:1007B800F800790878047504F6007608F9007908D5
:1007C8000A128A119F240A128A1108000A128A1131
:1007D80086240A128A118316031391150A128A11A4
:1007E80086240A128A11831203131308F30073086C
:1007F800F4000A128A1186240A128A118316031336
:100808009116111674080800F7007708F5007508A6
:10081800F600122C0130F5007508F60776088400FA
:1008280083130008031D192C1A2C0E2C7708760246
:10083800F300F401F31BF403080083120313941369
:100848001413941614121408F03908389400093057
:1008580083160313930091019401941787150716C3
:1008680008007E088A007F0882000A128A1135244F
:100878000A128A118000840A04087D0603190034CC
:10088800FF0A0319FE0A392C831203138C1E4D2C00
:100898004E2C532C1A08F0007008FA008C127208BB
:1008A8008A00710E8300FE0E7E0E09008316031760
:1008B8008801890183160313850187018901831241
:1008C8000313850187018901ED01ED0A08008316EC
:1008D80003139A0108309900181218158316031784
:1008E80087158312031398170800F40074088312FD
:1008F80003139900C730F300812CF30B802C842C50
:10090800852C08008316031314198B2C8C2C862C29
:1009180011081F39031D912C922C862C0800F40015
:10092800831203130714740885000A128A11AB2472
:100938000A128A110800F4008312031307107408BE
:1009480085000A128A11AB240A128A110800831240
:1009580003138714A630F300F30BB02C00008312A6
:100968000313871008008312031387171813181628
:10097800831603138C16831203138C1208000A12B1
:100988008A1186240A128A117308831203139300AA
:1009980008000A128A1186240A128A118316031380
:1009A800111508000A128A1186240A128A11831660
:1009B8000313111408008312031307138316031378
:1009C800181398160800831603130F178F160F12A3
:0A09D8000F1408008B170B1708001E
:04400E00D420FF3F7C
:00000001FF
